S0290000433A5C73775C7377303439375C72656C656173652F5357303439372D76302E302E362E7331396F
S315100000000000022009790010557900105779001068
S31510000010597900105B7900105D790010000000001E
S315100000200000000000000000000000005F790010D2
S31510000030617900100000000063790010551F001050
S31510000040494E0010514E0010594E0010614E0010CE
S31510000050694E0010714E0010794E0010814E00103E
S31510000060894E0010914E0010994E0010A14E0010AE
S31510000070A94E0010B14E0010B94E0010C14E00101E
S31510000080C94E0010D14E0010D94E0010E14E00108E
S31510000090E94E0010F14E0010F94E0010014F0010FD
S315100000A0094F0010114F0010194F0010214F00106A
S315100000B0294F0010314F0010394F0010414F0010DA
S315100000C0494F0010514F0010594F0010614F00104A
S315100000D0694F0010714F0010794F0010814F0010BA
S315100000E0894F0010914F0010994F0010A14F00102A
S315100000F0A94F0010B14F0010B94F0010C14F00109A
S31510000100C94F0010D14F0010D94F0010E14F001009
S31510000110E94F0010F14F0010F94F00100150001078
S3151000012009500010115000101950001021500010E5
S315100001302950001031500010395000104150001055
S3151000014049500010515000105950001061500010C5
S315100001506950001071500010795000108150001035
S31510000160895000109150001099500010A1500010A5
S31510000170A9500010B1500010B9500010C150001015
S31510000180C9500010D1500010D9500010E150001085
S31510000190E9500010F1500010F950001001510010F4
S315100001A00951001011510010195100102151001061
S315100001B029510010315100103951001041510010D1
S315100001C04951001051510010595100106151001041
S315100001D069510010715100107951001081510010B1
S315100001E0895100109151001099510010A151001021
S315100001F0A9510010B1510010B9510010C151001091
S31510000200C9510010D1510010D9510010E151001000
S31510000210E9510010F1510010F9510010015200106F
S315100002200952001068790010000000200803000031
S31510000230687900100000002F000000006879001097
S31510000240000000000000000068790010000000188F
S315100002500000000008030020D00600000000002F58
S315100002600000000000000000000000000000001860
S309100002700000000074
S31510000400FFFFFFFFFFFFFFFFFFFFFFFFFEF9FFFFED
S313100004105357303439372D76302E302E3600B5
S3151000043080B500AF06F028F806F032F806F053F84B
S3151000044006F07AF804F0E0F9034B1B680133024A10
S31510000450136000BFF8E700BF0803002080B483B024
S3151000046000AF78607B68002B00F089807B681B6882
S31510000470002B03D07B681B684D4AD3607B685B6892
S31510000480002B03D07B685B68494A53617B689B6885
S31510000490002B03D07B689B68454AD3617B68DB6879
S315100004A0002B03D07B68DB68414A53627B681B696B
S315100004B0002B03D07B681B693D4AD3627B685B695E
S315100004C0002B03D07B685B69394AD3637B689B69D1
S315100004D0002B03D07B689B69354A53677B68DB69C1
S315100004E0002B04D07B68DB69314AC2F884307B6804
S315100004F01B6A002B04D07B681B6A2D4AC2F8943005
S315100005007B685B6A002B04D07B685B6A284AC2F85A
S315100005109C307B689B6A002B04D07B689B6A244ABC
S31510000520C2F8BC307B68DB6A002B04D07B68DB6AC0
S315100005301F4AC2F8C4307B681B6B002B04D07B6843
S315100005401B6B1B4AC2F8DC307B685B6B002B04D03C
S315100005507B685B6B164AC2F804317B689B6B002B79
S3151000056004D07B689B6B124AC2F80C317B68DB6B3C
S31510000570002B04D07B68DB6B0D4AC2F814310D4B8F
S315100005804522DA740B4B45225A750A4B00221A740F
S31510000590084B00225A74074B4FF6FF725A83054BCD
S315100005A0FF229A7400BF0C37BD465DF8047B704776
S315100005B0000000200C03002080B584B000AF7860E6
S315100005C039600023FB7308227968334806F048F92E
S315100005D0314BDB7C03F00403002B03D12E4B01229D
S315100005E05A7402E02C4B00225A742B4BFF221A72BB
S315100005F0294B5A78284B9A72274B36225A72264B19
S315100006000022DA72244B00221A73234B00225A73EB
S31510000610214B00229A73204B0022DA731E4B1B7853
S31510000620232B28D81C4B1B781A461C4B13F8323038
S31510000630002B20D0184B1B78184ADB0013445B683C
S31510000640002B18D0144B1B781A46144B13F8323063
S3151000065003F04D02104BDB7CDB431340002B03D120
S315100006600D4B33225A7206E00B4B1B780B4ADB00FC
S3151000067013445B689847084B5B7C002B06D0082216
S315100006800749386806F0ECF80123FB73FB7B184624
S315100006901037BD4680BD00BF0C03002000000020AF
S315100006A01403002080B400AF024B1846BD465DF817
S315100006B0047B70470C03002080B400AF024B184631
S315100006C0BD465DF8047B70471403002080B400AF6C
S315100006D0034BDB7C1846BD465DF8047B704700BFB4
S315100006E00C03002080B400AF034B5B8B1846BD464D
S315100006F05DF8047B704700BF0C03002080B483B004
S3151000070000AF7860044A7B68D36100BF0C37BD46E2
S315100007105DF8047B704700BF0C03002080B400AF67
S31510000720034B01225A7400BFBD465DF8047B704727
S315100007300C03002080B596B000AF402387F84F30E9
S315100007400023A7F85630364BDB693B65354B1B78D3
S315100007501A46354B1B781B021A44344B1B781B0464
S315100007601A442F4B9B781B061344BB642C4BDB6936
S31510000770BA6C1344BB640021386D00F0A7FF78648F
S315100007807B6CB3F1FF3F34D02CE097F84F303F2B02
S3151000079016D9BA6C3B6DD31A3B643B6C3F2B06D90A
S315100007A03B4640221946786C01F018F805E03B46A6
S315100007B03A6C1946786C01F011F8002387F84F301F
S315100007C097F84F305A1C87F84F2058333B4413F88C
S315100007D0583C9AB2B7F856301344A7F856303B6DCA
S315100007E001333B653A6DBB6C9A42CED3786C00F000
S315100007F099FF0B4B00225A72094B0222DA72B7F894
S3151000080056301B0A9BB2DAB2054B1A73084BB7F86F
S315100008105620D2B21A7000BF5837BD4680BD00BFF1
S315100008200C03002011030020100300200F030020EA
S315100008301903002080B584B000AF0023FB73274B4B
S31510000840DB690121184600F041FFB860BB68B3F1BF
S31510000850FF3F34D00123FB73214B1B781A46214BE3
S315100008601B781B021A44204B1B781B041A441B4B83
S315100008709B781B0613447B607968B86801F0A2F870
S315100008800346002B0CBF01230023DBB21A46FB7B69
S315100008901340002B14BF01230023FB73B86800F02C
S315100008A041FF0346002B0CBF01230023DBB21A467F
S315100008B0FB7B1340002B14BF01230023FB73FB7B30
S315100008C0002B03D0054B00225A7202E0034B322252
S315100008D05A7200BF1037BD4680BD00BF0C03002002
S315100008E011030020100300200F03002080B483B0F2
S315100008F000AF184B1B789BB21B029AB2164B9B7813
S315100009009BB21344FB80144B5B8BFA889A4211D12D
S31510000910114B5A7D104BDA740F4BDB7C23F004031A
S31510000920DAB20D4BDA740C4B00225A720A4B0122C2
S315100009305A7409E0084BDA7C074B5A75064B452268
S31510000940DA74054B00225A7400BF0C37BD465DF8A9
S31510000950047B70470F0300200C03002080B483B083
S3151000096000AF1F4B1B789BB21B029AB21D4B9B7894
S315100009709BB21344FB801B4B5B8BFA889A4225D1A2
S31510000980184B9B78002B02D0012B0BD017E0154B80
S31510000990DA7C144B5A75134B4522DA74114B00222C
S315100009A05A720FE00F4B4522DA740E4B45225A75D8
S315100009B00C4B00221A740B4B00225A7202E0094BA0
S315100009C032225A72074B01225A7402E0054B00225A
S315100009D05A7400BF0C37BD465DF8047B704700BFE4
S315100009E00F0300200C03002080B582B000AF002357
S315100009F0FB71334B9B78052B44D8314BDB690121B6
S31510000A00184600F063FE38603B68B3F1FF3F27D00D
S31510000A100123FB712A4B9B781A462A49386800F045
S31510000A2057FF0346002B0CBF01230023DBB21A46E7
S31510000A30FB791340002B14BF01230023FB71386888
S31510000A4000F070FE0346002B0CBF01230023DBB21F
S31510000A501A46FB791340002B14BF01230023FB71A8
S31510000A60FB79002B0AD0164B00225A72144BDB6905
S31510000A70134A92781344124AD36106E0104B32227D
S31510000A805A7202E00E4B32225A720D4BDB691B0E64
S31510000A90DAB20B4B1A730A4BDB691A0C0A4BD2B239
S31510000AA01A70074BDB691A0A084BD2B21A70044B3C
S31510000AB0DA69074BD2B21A7000BF0837BD4680BD3F
S31510000AC00C0300200F030020190300201A03002036
S31510000AD01B03002080B400AF0C4B9B78022B07D170
S31510000AE00A4BDB78012B03D1084B00225A7202E025
S31510000AF0064B36225A72054B0222DA72034B01223A
S31510000B001A7300BFBD465DF8047B70470C030020C6
S31510000B1080B582B000AF0123FB71154BDB69184617
S31510000B2000F094FC3860124B9B7C1A463B6893424B
S31510000B3018D000F01FF80346FB71FB79002B11D07B
S31510000B400B4BDB690121184600F0C0FD38603B688D
S31510000B50B3F1FF3F04D03B68DAB2054B9A7401E05B
S31510000B600023FB71FB7918460837BD4680BD00BFD0
S31510000B700C03002080B582B000AF0123FB710B4B34
S31510000B809B7CFF2B0DD0094B9B7C184600F0CAFDB1
S31510000B900346002B0CBF01230023FB71034BFF22DE
S31510000BA09A74FB7918460837BD4680BD0C030020A1
S31510000BB080B582B000AF0123FB71294B9B78052BC2
S31510000BC030D8274B9B78002B16D0FFF7A1FF034692
S31510000BD0FB71FB79002B13D0214B9B7C1846204BC5
S31510000BE09B781A461F4900F073FE0346002B0CBF74
S31510000BF001230023FB7103E0FFF7BCFF0346FB71E3
S31510000C00FB79002B0AD0164B00225A72144BDB6963
S31510000C10134A92781344124AD36106E0104B3222DB
S31510000C205A7202E00E4B32225A720D4BDB691B0EC2
S31510000C30DAB20B4B1A730A4BDB691A0C0A4BD2B297
S31510000C401A70074BDB691A0A084BD2B21A70044B9A
S31510000C50DA69074BD2B21A7000BF0837BD4680BD9D
S31510000C600C0300200F030020190300201A03002094
S31510000C701B03002080B582B000AFFFF749FF034683
S31510000C80FB71FB79002B0CD01B4B9B7C06221B495E
S31510000C90184600F01DFE0346002B0CBF012300234F
S31510000CA0FB71FB79002B08D0134B00225A72124BA2
S31510000CB0DB690633104AD36102E00F4B32225A72B7
S31510000CC00D4BDB691B0EDAB20B4B1A730A4BDB6941
S31510000CD01A0C0B4BD2B21A70074BDB691A0A094B66
S31510000CE0D2B21A70044BDA69074BD2B21A7000BF2F
S31510000CF00837BD4680BD00BF0C0300200E03002040
S31510000D00190300201A0300201B03002080B582B0AF
S31510000D1000AF174B1B781A46164B1B781B021A444A
S31510000D20154B1B781B041A44144B1B791B061344D2
S31510000D307B60124B9B78002B02D0012B07D00DE065
S31510000D400E4A7B68D3610D4B00225A720AE00B4A99
S31510000D507B681362094B00225A7203E0074B32225A
S31510000D605A7200BFFFF706FF00BF0837BD4680BDA9
S31510000D701303002012030020110300200C0300208F
S31510000D8080B400AF034B00225A7200BFBD465DF817
S31510000D90047B70470C03002080B483B000AF1E4B59
S31510000DA01B789AB21D4B9B789BB21B029BB21344C5
S31510000DB0FB801A4B1B7C002B20D0184B1B8BFA8800
S31510000DC09A4214D1154BDB7C5AB2144B1B7D5BB285
S31510000DD0DB435BB213405BB2DAB2104BDA740F4BE3
S31510000DE0DA7C0E4B5A750D4B00225A7202E00B4BF1
S31510000DF035225A72094B00221A7402E0074B35222B
S31510000E005A72064BDA7C054BDA7200BF0C37BD46B8
S31510000E105DF8047B704700BF0F0300200C03002011
S31510000E2080B582B000AF0023FB71284B9B78052B51
S31510000E3044D8264BDB690021184600F047FC386081
S31510000E403B68B3F1FF3F27D00123FB711F4B9B7803
S31510000E501A461F49386800F0C1FC0346002B0CBF28
S31510000E6001230023DBB21A46FB791340002B14BF73
S31510000E7001230023FB71386800F054FC0346002B55
S31510000E800CBF01230023DBB21A46FB791340002B5B
S31510000E9014BF01230023FB71FB79002B0AD00B4BE7
S31510000EA000225A72094BDB69084A92781344074AA2
S31510000EB0D36106E0054B32225A7202E0034B32220E
S31510000EC05A7200BF0837BD4680BD00BF0C03002014
S31510000ED01703002080B483B000AF0F4B1B789BB272
S31510000EE01B029AB20D4B9B789BB21344FB800B4BA3
S31510000EF05B8BFA889A4206D1084B00225A72074B2E
S31510000F0001225A7402E0054B00225A7400BF0C37B6
S31510000F10BD465DF8047B70470F0300200C030020CC
S31510000F2080B500AF294B9A78284B1A75274B1B7D35
S31510000F30402B03D0254B1B7D012B3ED1234B012289
S31510000F401A7404F065F903469AB2204BDA821F4BE5
S31510000F501B7D012B02D0402B0BD011E01B4BDB8AE3
S31510000F60DB439BB21A46520013449AB2174B1A83AC
S31510000F7006E0164BDB8ADB439AB2144B1A8300BF8A
S31510000F80124B00225A72114B1A7D104BDB7C134008
S31510000F90DBB2002B01D0012200E000220B4BDA72EB
S31510000FA00A4BDB8A1B0A9BB2DAB2084B1A73074B41
S31510000FB0DA8A074BD2B21A7006E0044B00221A7472
S31510000FC0024B32225A7200BF00BF80BD0C030020B4
S31510000FD01903002080B485B000AF78607B68002BC1
S31510000FE007DB134B1B791A467B68934201DA002301
S31510000FF001E06FF47B73FB81B7F90E30002B0ED135
S315100010000B4B19687A6813465B0013449B000B441C
S315100010105B68002B01D1074B00E00023FB81B7F979
S315100010200E3018461437BD465DF8047B704700BF76
S315100010303003002014FCFFFF80B483B000AF78604B
S315100010407B68002B01D1044B00E0002318460C37B7
S31510001050BD465DF8047B70470EFCFFFF80B400AF01
S31510001060054B00221A60044B00221A710023184601
S31510001070BD465DF8047B70473003002080B483B012
S3151000108000AF78600B46FB70064A7B681360054A12
S31510001090FB781371002318460C37BD465DF8047BA8
S315100010A0704700BF3003002090B585B000AF786060
S315100010B00B46FB707868FFF78DFF0346FB81B7F987
S315100010C00E30002B0ED1194B19687A6813465B0047
S315100010D013449B000B445B681B681846FFF7ACFF74
S315100010E00346FB81B7F90E30002B18D10F4B196848
S315100010F07A6813465B0013449B000B445B681C68BC
S315100011000A4B19687A6813465B0013449B000B441C
S315100011109B68FA7811461846A0470346FB81B7F933
S315100011200E3018461437BD4690BD00BF3003002060
S3151000113090B585B000AF786039607868FFF74AFFE0
S315100011400346FB81B7F90E30002B0ED1184B1968E8
S315100011507A6813465B0013449B000B445B68DB689C
S315100011601846FFF769FF0346FB81B7F90E30002BCF
S3151000117017D10F4B19687A6813465B0013449B000E
S315100011800B445B68DC680A4B19687A6813465B0087
S3151000119013449B000B449B6839681846A0470346C6
S315100011A0FB81B7F90E3018461437BD4690BD00BF07
S315100011B03003002090B585B000AF7860396078684C
S315100011C0FFF708FF0346FB81B7F90E30002B0ED14F
S315100011D0184B19687A6813465B0013449B000B443E
S315100011E05B681B691846FFF727FF0346FB81B7F9B3
S315100011F00E30002B17D10F4B19687A6813465B0017
S3151000120013449B000B445B681C690A4B19687A6887
S3151000121013465B0013449B000B449B6839681846C1
S31510001220A0470346FB81B7F90E3018461437BD4662
S3151000123090BD00BF3003002080B485B000AF786049
S315100012407B68002B07DB094B1B7A1A467B68934297
S3151000125001DA002301E06FF47B73FB81B7F90E30DE
S3151000126018461437BD465DF8047B704738030020D6
S3151000127080B584B000AF78607868FFF7DDFF03466D
S31510001280FB81B7F90E30002B0ED10A4B19687A681C
S3151000129013465B001344DB000B441B69002B01D182
S315100012A0054B00E00023FB81B7F90E3018461037C6
S315100012B0BD4680BD3803002014FCFFFF80B483B008
S315100012C000AF78607B68002B01D1044B00E000234F
S315100012D018460C37BD465DF8047B70470EFCFFFFC1
S315100012E080B483B000AF786039607B689B683A68D9
S315100012F09A4201D2002300E0034B18460C37BD4634
S315100013005DF8047B704700BF0DFCFFFF80B485B00D
S3151000131000AF78600B46FB700023FB810D4B5A68BB
S315100013207B68DB0013441B78012B08D1094B5A68E4
S315100013307B68DB0013445B78FA789A4202D04FF64A
S315100013400F43FB81B7F90E3018461437BD465DF8CA
S31510001350047B70473803002080B485B000AF7860F6
S3151000136039603B68FB600F4B19687A6813465B005F
S315100013701344DB000B445B68FA68D31AFB60094B15
S3151000138019687A6813465B001344DB000B441B682C
S31510001390FA681344FB60FB6818461437BD465DF8BF
S315100013A0047B70473803002080B400AF064B002240
S315100013B01A60054B00225A60034B00221A7200BFB6
S315100013C0BD465DF8047B70473803002080B487B0B3
S315100013D000AFF860B9601346FB711B4AFB681360D7
S315100013E0194ABB685360184AFB79137200237B6154
S315100013F01FE0154B5A687B69DB00134400225A70B4
S31510001400114B5A687B69DB00134400221A700E4B8D
S3151000141019687A6913465B001344DB00CA180A4B35
S3151000142059687B69DB000B4452685A607B6901334B
S315100014307B61FB797A699A42DBDB002318461C37FD
S31510001440BD465DF8047B70473803002080B584B034
S3151000145000AF78604FF0FF33FB600023BB6014E0F1
S315100014600F4B1968BA6813465B001344DB000B4434
S315100014707968184604F01DF80346002B02D1BB68A4
S31510001480FB6008E0BB680133BB60054B1B7A1A464C
S31510001490BB689342E4DBFB6818461037BD4680BD37
S315100014A03803002090B587B000AFF860B9607A6055
S315100014B0F868FFF7DDFE0346FB82B7F91630002BFE
S315100014C00ED12D4B1968FA6813465B001344DB00E6
S315100014D00B441B695B691846FFF7F0FE0346FB8257
S315100014E0B7F91630002B0DD1234B1968FA6813463D
S315100014F05B001344DB000B44B9681846FFF7F0FE97
S315100015000346FB82B7F91630002B22D11A4B196805
S31510001510FA6813465B001344DB000B441B695C69D5
S31510001520154B1968FA6813465B001344DB000B442D
S315100015305869114B1968FA6813465B001344DB00AF
S315100015400B445A68BB6813447A681946A047034689
S31510001550FB82B7F91630002B08D17B689B681946B9
S31510001560F868FFF7F9FE02467B689A60B7F91630FD
S3151000157018461C37BD4690BD3803002090B587B07D
S3151000158000AFF860B9601346FB71F868FFF770FE9C
S315100015900346BB82B7F91430002B0DD14A4B19689C
S315100015A0FA6813465B001344DB000B44B96818460F
S315100015B0FFF796FE0346BB82B7F91430002B0AD10B
S315100015C0414B5A68FB68DB0013441B78002B02D092
S315100015D04FF61743BB82B7F91430002B0ED13A4B96
S315100015E01968FA6813465B001344DB000B44FA795A
S315100015F0197B104603F09BFF0346BB82B7F91430E4
S31510001600002B12D1304B1968FA6813465B0013444D
S31510001610DB000B441B691B681846FFF74FFE034699
S31510001620002B0CBF01230023FB75FB7D002B21D063
S31510001630254B1968FA6813465B001344DB000B440C
S315100016401B691C68204B1968FA6813465B00134423
S31510001650DB000B4458691C4B1968FA6813465B008B
S315100016601344DB000B445A68BB6813441946A04761
S315100016700346BB82B7F91430002B1ED1124B5A68A1
S31510001680FB68DB001344FA795A700F4B5A68FB68F3
S31510001690DB00134401221A700B4B1968FA681346C3
S315100016A05B001344DB000B445968074B5A68FB6810
S315100016B0DB001344BA680A445A60B7F91430184666
S315100016C01C37BD4690BD00BF3803002080B584B0DE
S315100016D000AF78600B46FB707868FFF7B7FEF860CE
S315100016E0FB68B3F1FF3F15D00D4B1968FA68134626
S315100016F05B001344DB000B441B687A68D31AFA7834
S315100017001946F868FFF73AFF0346002B02D04FF050
S31510001710FF33FB60FB6818461037BD4680BD00BF1F
S315100017203803002080B584B000AF78607868FFF782
S315100017309FFD0346BB81B7F90C30002B12D1264B07
S3151000174019687A6813465B001344DB000B441B6967
S315100017501B691846FFF7B2FD0346002B0CBF012389
S315100017600023FB73FB7B002B16D01B4B19687A6882
S3151000177013465B001344DB000B441B691969164BB7
S3151000178018687A6813465B001344DB0003445B69F0
S31510001790184688470346BB81B7F90C30002B15D184
S315100017A00D4B5A687B68DB00134400221A700A4BF3
S315100017B019687A6813465B001344DB00CA18064B97
S315100017C059687B68DB000B4452685A60B7F90C30D5
S315100017D018461037BD4680BD3803002090B587B037
S315100017E000AFF860B9607A60F868FFF741FD03460C
S315100017F0FB82B7F91630002B0ED1344B1968FA68F4
S3151000180013465B001344DB000B441B695B681846E8
S31510001810FFF754FD0346FB82B7F91630002B15D19E
S315100018202A4B1968FA6813465B001344DB00C81884
S31510001830264B5A68FB68DB0013445A687B681344CE
S31510001840013B194603F054FE0346FB82B7F91630E6
S31510001850002B05D10021F868FFF758FD0346FB82DF
S31510001860B7F91630002B18D1184B1968FA681346B9
S315100018705B001344DB000B441B695C68134B19684F
S31510001880FA6813465B001344DB000B445B697A6805
S31510001890B9681846A0470346FB82B7F91630002BE5
S315100018A00DD10A4B5A68FB68DB0013445968074B85
S315100018B05A68FB68DB0013447A680A445A60B7F921
S315100018C0163018461C37BD4690BD00BF38030020A1
S315100018D090B587B000AFF860B9607A60F868FFF726
S315100018E0C7FC0346FB82B7F91630002B0ED1344BDA
S315100018F01968FA6813465B001344DB000B441B6936
S315100019009B681846FFF7DAFC0346FB82B7F91630D8
S31510001910002B15D12A4B1968FA6813465B0013443D
S31510001920DB00C818264B5A68FB68DB0013445A685C
S315100019307B681344013B194603F0DAFD0346FB822C
S31510001940B7F91630002B05D10121F868FFF7DEFC38
S315100019500346FB82B7F91630002B18D1184B1968BD
S31510001960FA6813465B001344DB000B441B699C6842
S31510001970134B1968FA6813465B001344DB000B44DB
S315100019805B697A68B9681846A0470346FB82B7F9BF
S315100019901630002B0DD10A4B5A68FB68DB00134436
S315100019A05968074B5A68FB68DB0013447A680A4487
S315100019B05A60B7F9163018461C37BD4690BD00BFA1
S315100019C03803002090B585B000AF7860396078682C
S315100019D0FFF74EFC0346FB81B7F90E30002B0ED1F4
S315100019E02A4B19687A6813465B001344DB000B44D4
S315100019F01B69DB681846FFF761FC0346FB81B7F9E4
S31510001A000E30002B15D1214B19687A6813465B00EE
S31510001A101344DB00C8181D4B5A687B68DB0013445F
S31510001A205A683B681344013B194603F061FD0346AF
S31510001A30FB81B7F90E30002B05D101217868FFF72D
S31510001A4065FC0346FB81B7F90E30002B17D10F4BFF
S31510001A5019687A6813465B001344DB000B441B6954
S31510001A60DC680A4B19687A6813465B001344DB007E
S31510001A700B445B6939681846A0470346FB81B7F9E2
S31510001A800E3018461437BD4690BD00BF38030020EF
S31510001A9080B584B000AF78607868FFF7CDFB034659
S31510001AA0002B0AD1094B19687A6813465B00134458
S31510001AB0DB000B441B68FB6002E04FF0FF33FB605A
S31510001AC0FB6818461037BD4680BD00BF380300209E
S31510001AD080B584B000AF78607868FFF7ADFB034639
S31510001AE0002B0AD1084B19687A6813465B00134419
S31510001AF0DB000B449B68FB6001E00023FB60FB6886
S31510001B0018461037BD4680BD3803002080B582B018
S31510001B1000AF78607B681B68184600F0E9FF034643
S31510001B20DAB27B681A717B681B791946114A7B6891
S31510001B3042F821307B6818687B6803F108017B68DE
S31510001B401B791A460C4B53F82220002301F042FC55
S31510001B507B681B680021184604F080F97B681B68B7
S31510001B600021184604F092F9002318460837BD469E
S31510001B7080BD00BF440300202001002080B584B042
S31510001B8000AF0346B9607A60FB73FB7B244A52F8B8
S31510001B902330002B3AD0BB6841F2BC42934237DC6B
S31510001BA0BB6841F2BB4293421FDABB6841F2B542B1
S31510001BB093420AD0BB6841F2B542934228DBBA6819
S31510001BC0184B1344012B23D80FE0FB7B144A52F811
S31510001BD02330D3F8C4301B791A467B68934219D147
S31510001BE0FB7B184600F09CF814E0FB7B0C4A52F87D
S31510001BF02330D3F8C8301B791A467B6893420BD131
S31510001C00FB7B7968184600F00FF805E000BF04E08A
S31510001C1000BF02E000BF00E000BF1037BD4680BD28
S31510001C204403002048EBFFFF80B586B000AF0346A3
S31510001C303960FB71FB79394A52F8233093F8C0307A
S31510001C40022B66D0FB79354A52F8233093F8C03010
S31510001C50012B5ED0FB79314A52F82330D3F8C830C5
S31510001C601B6807F108021146184603F0EAFDFB79D6
S31510001C702A4A52F82330D3F8A83007F10802114641
S31510001C80184603F068FBFB79244A52F8233018688B
S31510001C90FB79224A52F8233003F10801FB791F4AD7
S31510001CA052F82330D3F8C8301A4601F087FCFB7976
S31510001CB01A4A52F82330D3F8A8305B79002B09D092
S31510001CC0FB79164A52F82330B3F8B820013292B293
S31510001CD0A3F8B820FB79114A52F82330D3F8A8306C
S31510001CE01B799AB2FB790D4951F82330B3F8BC3001
S31510001CF09A420FD9FB79094A52F82330D3F8A83003
S31510001D001979FB79054A52F823308AB2A3F8BE2016
S31510001D1000E000BF1837BD4680BD00BF4403002059
S31510001D2080B586B000AF0346FB71FB79204A52F8A6
S31510001D30233093F8C030022B35D0FB791C4A52F869
S31510001D40233093F8C030012B2DD0FB79184A52F866
S31510001D50233093F8C030032B25D0FB79144A52F860
S31510001D602330D3F8AC3007F108021146184603F0B9
S31510001D704AFB0346002B17D0FB790D4A52F8233045
S31510001D8007F108021146184603F005FD0346002B1D
S31510001D900AD1FB79064A52F82330D3F8AC301846EC
S31510001DA003F05AFB00E000BF1837BD4680BD00BFE8
S31510001DB04403002080B483B000AF786039607B683C
S31510001DC01B79002B11D17B681B689B0423F06043A1
S31510001DD0274A1A4039684B6862F31C034B603A680D
S31510001DE093786FF3451393700DE07B681B6823F0AF
S31510001DF060413A68536861F31C0353603A689378FC
S31510001E0043F0200393703A6893786FF3041393703A
S31510001E107B685B7903F00F03D9B23A68937861F364
S31510001E20030393707B689A793B68DA727B68DA7978
S31510001E303B689A727B681A7A3B685A727B685A7A40
S31510001E403B681A727B689A7A3B68DA737B68DA7A2F
S31510001E503B689A737B681A7B3B685A737B685A7B1C
S31510001E603B681A7300BF0C37BD465DF8047B70479C
S31510001E700000FC1F80B483B000AF03463960FB71CD
S31510001E8097F90730002B0ADB3B68DAB20C4997F951
S31510001E9007301201D2B20B4483F800230AE03B68E4
S31510001EA0DAB20849FB7903F00F03043B1201D2B2F0
S31510001EB00B441A7600BF0C37BD465DF8047B70479D
S31510001EC000E100E000ED00E080B582B000AF786080
S31510001ED07B68013BB3F1807F01D301230FE00A4AEF
S31510001EE07B68013B53600F214FF0FF30FFF7C2FFB5
S31510001EF0054B00229A60044B07221A6000231846ED
S31510001F000837BD4680BD00BF10E000E080B500AFC9
S31510001F100B4B00221A600B4B00221A7000F0C0FB0C
S31510001F200346094AA2FB03235B091846FFF7CCFFB9
S31510001F30064B00221A60064B00221A6000BF80BDB5
S31510001F4050030020D40900201F85EB5154030020B4
S31510001F505803002080B582B000AF00F0A1FB786076
S31510001F60104B5B685A1C7B680F49A1FB03139B0C33
S31510001F70B2FBF3F20D4B1B6813440C4A1360094B6A
S31510001F805B685A1C7B680A49A1FB03139B09B2FBC9
S31510001F90F3F2084B1B681344064A136000BF083758
S31510001FA0BD4680BD10E000E083DE1B4358030020D1
S31510001FB0D34D62105403002080B582B000AF0D4B94
S31510001FC01B78FF2B02D10C4802F006FD03F0A3FC90
S31510001FD07860084B1B780133DAB2064B1A70054B42
S31510001FE01B78012B02D1054A7B68136000BF0837A6
S31510001FF0BD4680BDD40900201C6D00105003002082
S3151000200080B500AF0B4B1B78002B02D10A4802F0AB
S31510002010E3FC084B1B78013BDAB2064B1A70054BF2
S315100020201B78002B04D1054B1B68184603F084FC63
S3151000203000BF80BDD4090020586D00105003002049
S3151000204090B585B000AFFFF7B7FF0F4B1B68FB606D
S315100020500E4B9B68BB60FFF7D3FF0C4B5A68BB68EF
S31510002060D31A5C1C00F01CFB0346094AA2FB03238F
S315100020709B09B4FBF3F37B60FA687B68134418463C
S315100020801437BD4690BD00BF5403002010E000E099
S31510002090D34D621098B500AF0C4B1B7883F001033B
S315100020A0DBB2002B07D00A4B9B68184602F064FE81
S315100020B0064B01221A7002F03BFE044602F038FE6F
S315100020C003461B042343184698BD00BFD5090020BC
S315100020D010E000E080B582B000AF0023FB806422E0
S315100020E000210A4804F0BEFB084B2022DA7107488B
S315100020F003F067FF0346002B02D04FF61843FB8010
S31510002100B7F9063018460837BD4680BD5C03002077
S3151000211080B588B000AF786039600023FB83002358
S31510002120BB600023BB613968786800F065F9034627
S31510002130002B50D04FF400433B617A683B69B2FBE9
S31510002140F3F3FB733A683B69B2FBF3F3BB73FB7BA8
S315100021503A6902FB03F37A68D31AB3F1805F09D8A0
S315100021603B683A69B3FBF2F2396901FB02F29B1A3A
S31510002170002B03D04FF61343FB832FE0FB7BFB753D
S3151000218009E0FB7D012202FA03F3BA691344BB612D
S31510002190FB7D0133FB75FA7DF97BBB7B0B449A42C1
S315100021A0EFDBBB69DB43BB6107F1080319460E4839
S315100021B001F032FFBA68BB691340BB6007F1080330
S315100021C01946094801F002FF0346002B06D04FF6C8
S315100021D01843FB8302E04FF60D43FB83B7F91E301D
S315100021E018462037BD4680BD5C03002080B58CB0F4
S315100021F000AFF860B9607A60FB687B627B6A1B6827
S315100022007A6A928813443B620023FB857B6A032219
S315100022109A7303F0A1FB0023BB622DE07B6A9B88B7
S31510002220072B18D9786A00F001F90346FB85B7F930
S315100022302E30002B25D17B6A1B6803F108027B6ABE
S315100022401A607B6A00229A807B6A06330822FF2175
S31510002250184604F007FBBA68BB6A1A447B6A9B8867
S31510002260591C88B2796A8880194612787B6A0B44A1
S315100022709A71BB6A0133BB62BA6A7B689A42CDD344
S3151000228000E000BF03F06EFB3A6A7B68FA61BB613F
S31510002290BB69002B1DDDFB6903F01F02BB691344EC
S315100022A07B61FB693B61BFF34F8F00BF0C4A3B69F3
S315100022B0C2F85C323B6920333B617B69203B7B6112
S315100022C07B69002BF2DCBFF34F8F00BFBFF36F8F1C
S315100022D000BF00BFB7F92E3018463037BD4680BD57
S315100022E000ED00E080B58CB000AF786039607B6897
S315100022F0BB620023FB85BB6A04229A73BB6A1B6808
S31510002300C3F30C037B62BB6A1A687B6AD31A3B62FF
S315100023107A6A3B681344FB61F969386A00F06CF815
S315100023200346002B41D003F017FB234BFA69396A99
S31510002330224803F08AFE0346002B02D04FF61843BC
S31510002340FB850123FA69396A1C4803F0DEFE034651
S31510002350002B02D04FF61843FB8503F003FB3A6AB5
S31510002360FB69BA617B617B69002B1DDDBB6903F0DC
S315100023701F027B6913443B61BB69FB60BFF34F8F40
S3151000238000BF0F4AFB68C2F85C32FB682033FB6063
S315100023903B69203B3B613B69002BF2DCBFF34F8F5F
S315100023A000BFBFF36F8F00BF00BFB7F92E301846BE
S315100023B03037BD4680BD00BF6B66656B5C03002081
S315100023C000ED00E080B483B000AF78607B68B3F1B5
S315100023D0805F05D37B68074A934201D8012300E04A
S315100023E0002303F00103DBB218460C37BD465DF837
S315100023F0047B7047FFFF0F1080B483B000AF786086
S3151000240039607B68B3F1805F07D37A683B68134401
S31510002410054A934201D8012300E0002318460C37E1
S31510002420BD465DF8047B70470000101080B58AB079
S3151000243004AF78600023FB827B681B681846FFF7A1
S31510002440C1FF034683F00103DBB2002B03D04FF626
S315100024501343FB822CE07B689B7B032B28D17B6884
S315100024609B88002B24D07B6819687B689A1D0823EB
S31510002470124803F01AFE0346002B02D04FF61843FB
S31510002480FB827B6819687B689A1D07F10C0302931F
S3151000249007F11003019301230093134608220748FE
S315100024A003F063FE0346002B02D04FF61843FB825F
S315100024B0B7F9163018461837BD4680BD5C030020A4
S315100024C080B483B000AF7860084B1B6823F44022B9
S315100024D07B689B0403F44023044913430B6000BF3D
S315100024E00C37BD465DF8047B704700BF0070044092
S315100024F080B483B000AF78600A4B03F580535B68F5
S3151000250023F440327B681B0403F44033054913431C
S3151000251001F58052536000BF0C37BD465DF8047B51
S31510002520704700BF0070044080B500AF054B1B68B4
S31510002530002B02D1044802F04FFA024B1B681846D2
S3151000254080BD00BFC0030020A86D001080B582B00A
S3151000255000AFFFF7E9FF78601F4B1B78DBB2DB0893
S31510002560DBB203F00703FB70FB787A6822FA03F3F9
S315100025707B60194B5B78DBB21B09DBB203F00303FC
S31510002580BB70BB78002B21D0FB78072B14D0072B00
S3151000259019DC052B02DC002B03DA14E0062B04D021
S315100025A011E07B685B097B6011E07B680B4AA2FB3C
S315100025B003231B097B600AE07B68094AA2FB0323FD
S315100025C0DB087B6003E000237B6000E000BF7B68D4
S315100025D018460837BD4680BD00400640CDCCCCCC51
S315100025E0ABAAAAAA80B483B000AF0E4B9B79DBB21C
S315100025F003F00103002B03D10B4B1B687B600AE031
S315100026000A4B1A68074B1B7ADBB25B0803F0070309
S3151000261022FA03F37B607B6818460C37BD465DF8DB
S31510002620047B7047004006402C010020300100203A
S3151000263080B582B000AF094B9B79DBB203F0100373
S31510002640002B03D1FFF782FF786002E0044B1B6872
S315100026507B607B6818460837BD4680BD0040064043
S315100026602C01002080B485B000AF78607B6849F6F5
S315100026709702934202D80023FB7308E07B68074A4F
S31510002680934202D80123FB7301E00223FB73FB7B09
S3151000269018461437BD465DF8047B704700127A0061
S315100026A080B500AF00F02AF80246064B03F58053BA
S315100026B05B6C1B0F03F00F030133B2FBF3F31846E9
S315100026C080BD00BF0070044080B582B000AF786056
S315100026D0094A7B685B6802F5805253647B681B78F5
S315100026E01846FFF705FF7B685B781846FFF7E8FE8C
S315100026F000BF0837BD4680BD0070044080B582B06B
S3151000270000AF164B9B79DBB29B0803F003033B60CB
S315100027103B68032B1AD801A252F823F03527001074
S315100027203D270010452700102D27001000F05AF8FD
S3151000273078600EE000F014F878600AE0FFF752FFB8
S31510002740786006E0FFF7F0FE786002E000237B6019
S3151000275000BF7B6818460837BD4680BD004006405E
S3151000276080B584B000AF1D4B5B78DBB203F002037B
S31510002770002B06D1194B9B79DBB203F02003002BFB
S3151000278002D00023FB6024E0FFF752FFB860BB685D
S31510002790002B02D1BB68FB601BE0104BDB78DBB271
S315100027A05B09DBB203F00303FB710C4BDB78DBB286
S315100027B0DB09DBB203F00103BB71FA79BB79084977
S315100027C05200134431F813301A46BB6802FB03F368
S315100027D0FB60FB6818461037BD4680BD00400640BA
S315100027E0406E001080B584B000AF1B4B9B79DBB2F6
S315100027F003F04003002B02D10023FB6027E003F017
S31510002800DCF9B860BB68002B02D1144802F0E4F87A
S31510002810114B1B79DBB203F00703DBB20133FB71FB
S31510002820FB79BA68B2FBF3F3BB600B4B5B79DBB297
S3151000283003F01F03DBB21033BB71BA79BB6802FB1E
S3151000284003F3BB60BB685B08BB60BB68FB60FB68DF
S3151000285018461037BD4680BD00400640CC6D0010AE
S3151000286080B584B000AF78607B68002B02D11C481D
S3151000287002F0B2F80023FB737B685B7803F0070362
S31510002880DAB2FB7B1343FB73164AFB7B1371154BB2
S315100028905B79DBB223F01F03DAB27B689B7803F017
S315100028A01F03DBB20F491343DBB24B710D4B1B7980
S315100028B0DAB27B681B781343DBB20A4A43F0400353
S315100028C0DBB2137100BF074B9B79DBB203F04003F9
S315100028D0002BF8D000BF00BF1037BD4680BD00BF2B
S315100028E0EC6D00100040064080B584B000AF7860F3
S315100028F07B681B681846FFF7B5FE0346FB737B68BB
S315100029001B791946194803F03EF9194B5B78DBB26F
S3151000291023F03C03DAB2FB7B1B01DBB203F030037E
S31510002920DBB21343DAB27B685B7911491343DBB22E
S315100029304B707B68063319460C4803F004F97B6824
S315100029405B79002B0DD0094B1B78DBB25BB2002BE9
S3151000295007DA00BF064B9B79DBB203F00203002BAC
S31510002960F8D000BF1037BD4680BD00BF00500640EE
S315100029700040064080B582B000AF03463960FB7157
S315100029803B68002B02D1234802F026F8224B5B78D5
S31510002990DBB2214A23F00203DBB253701E4B1B78C5
S315100029A0DBB203F03B03DBB21B4A63F07F03DBB2FF
S315100029B0137000BF184B9B79DBB203F01C03082B76
S315100029C0F8D1154B5B79DBB2134A23F04003DBB227
S315100029D0537100BF104B9B79DBB203F02003002B21
S315100029E0F8D13868FFF73CFF0B4B5B79DBB20A4A2C
S315100029F043F04003DBB2537100BF074B9B79DBB248
S31510002A0003F02003002BF8D0002318460837BD46E4
S31510002A1080BD00BF086E00100040064080B582B031
S31510002A2000AF03463A60FB710B46BB713B68002B47
S31510002A3002D1114801F0D0FFFB79184603F0C4F813
S31510002A40BB7939681846FFF795FF0C4B1B78DBB23C
S31510002A500A4A03F03F03DBB2137000BF074B9B79A2
S31510002A60DBB29B0803F00303032BF7D100231846B0
S31510002A700837BD4680BD00BF246E001000400640DA
S31510002A8080B483B000AF0346FB7197F90730002B73
S31510002A900BDBFB7903F01F02074997F907305B0937
S31510002AA0012000FA02F241F8232000BF0C37BD4680
S31510002AB05DF8047B704700BF00E100E080B485B08C
S31510002AC000AF78607B681A0C084B1344FB60FB68F8
S31510002AD019687B689BB201229A40FB680A431A6008
S31510002AE000BF1437BD465DF8047B70470070044084
S31510002AF080B584B000AF78600023FB6009E00D4A12
S31510002B00FB6852F823307A689A4206D0FB68013384
S31510002B10FB60FB68022BF2D900E000BFFB68022BBA
S31510002B2002D9054801F058FFFB6818461037BD4614
S31510002B3080BD00BF506E0010806E001080B584B04E
S31510002B4000AF78600B46FB70FB780F2B02D90C4850
S31510002B5001F042FF0123FB600023FB727B689A6A37
S31510002B60FB78F96801FA03F31340002B14BF012315
S31510002B700023FB72FB7A18461037BD4680BD00BF96
S31510002B80BC6E001080B584B000AF78607B681B689F
S31510002B90002B02DA2F4801F01FFF7B681B6823F415
S31510002BA080227B681A6000BF7B681B6803F4801361
S31510002BB0002BF9D17B681B6843F000727B681A60A2
S31510002BC000BF7B681B6803F00073002BF9D17B688C
S31510002BD01A68214B13437A6813607B6880225A6007
S31510002BE07B684FF433025A630023FB730AE0FA7BC7
S31510002BF07B6802F508726FF0404143F82210FB7BA8
S31510002C000133FB73FB7B0F2BF1D97B686FF04042CE
S31510002C101A617B686FF040425A617B686FF04042E0
S31510002C209A617B686FF040429A640023FB7309E057
S31510002C30FB7B7A6808331B01134400221A60FB7B66
S31510002C400133FB73FB7B0F2BF2D900BF00BF10378C
S31510002C50BD4680BD1C6F00100F00280082B080B5E5
S31510002C6086B000AFF860B9607A607B6297F827305B
S31510002C701A4697F82830134497F82920134404333A
S31510002C803B617B683A6902FB03F37B617B68164AFA
S31510002C90934202D9154801F09FFE7A69BB689A42A1
S31510002CA002D9134801F098FE7B69002B01D101234C
S31510002CB07B61BA687B69B2FBF3F3013B7B617B698D
S31510002CC0FF2B01D9FF237B617B699BB2BB8407F184
S31510002CD024031946F86800F0D7F800BF1837BD4628
S31510002CE0BDE8804002B0704740420F00586F001098
S31510002CF0886F001080B58AB002AFF860B9607A604C
S31510002D00BB68002B02D15D4801F066FEBB689B795B
S31510002D10002B03D0BB689B79102B02D9584801F0C1
S31510002D205BFEF868FFF7E4FEF861564AFB6952F855
S31510002D3023301846FFF7C2FE0021F86802F0FDFFA7
S31510002D40BB681B79002B04D1FB685B6823F4005326
S31510002D5003E0FB685B6843F40053FA685360012193
S31510002D60F86802F0EAFFF868FFF70CFFFB685B688B
S31510002D70BB61FB681B687B61BB68DB79002B03D0EA
S31510002D80BB6943F4805302E0BB6923F48053BB61F3
S31510002D90BB681B7A002B03D0BB6943F0200302E00B
S31510002DA0BB6923F02003BB61BB681B7B002B03D0E0
S31510002DB0BB6943F0080302E0BB6923F00803BB615B
S31510002DC07B6923F07F02BB689B79013B03F07F038D
S31510002DD013437B61BB685B7A002B03D07B6943F49A
S31510002DE0800302E07B6923F480037B61BB685B7917
S31510002DF0012B03D17B6943F4002302E07B6923F4A2
S31510002E0000237B61BB689B7A002B03D07B6943F45C
S31510002E10803302E07B6923F480337B61BB68DB7A05
S31510002E20002B03D07B6943F4003302E07B6923F463
S31510002E3000337B61BB685B7B002B03D07B6943F45B
S31510002E40802302E07B6923F480237B61FB68BA69E7
S31510002E505A60FB687A691A60BB681A68BB68D3F84F
S31510002E600E0001465B8AADF800300B467968F868AB
S31510002E70FFF7F4FE00BF2037BD4680BDB86F0010C7
S31510002E80DC6F0010746E001080B582B000AF7860F1
S31510002E9039603B68002B02D1194801F09DFD786816
S31510002EA002F075FF7B685A684FF6F87313407A681C
S31510002EB053607B685A683B681B8819063B689B7889
S31510002EC09B0503F4400319433B68DB78DB0403F4EA
S31510002ED0601319433B681B791B0403F4E023194361
S31510002EE03B685B7903F007030B431A437B685A6010
S31510002EF0786802F06AFF00BF0837BD4680BD00BF84
S31510002F006870001080B582B000AF78600B46FB7019
S31510002F101346BB70FA787B681B6803F07F039A42EE
S31510002F2002D91F4801F058FDFB781946786802F05F
S31510002F306AFF034683F00103DBB2002B02D1194866
S31510002F4001F04AFDBB78002B08D0FB787A6808336D
S31510002F501B0113444FF000621A6006E0FB787A6892
S31510002F6008331B01134400221A60FB787A68083371
S31510002F701B011344043300221A60FB787A681B0184
S31510002F801344883300221A60FB787A681B011344B5
S31510002F908C3300221A6000BF0837BD4680BD00BFC3
S31510002FA090700010D070001080B586B000AFF86039
S31510002FB07A601A460B46FB721346BB72FA7AFB68A6
S31510002FC01B6803F07F039A4202D9324801F004FDD0
S31510002FD07B68002B05D1BB7A002B02D02E4801F05E
S31510002FE0FBFCFB7A1946F86802F00DFF034683F0E6
S31510002FF00103DBB2002B02D1284801F0EDFC0023BF
S315100030007B61FB7AFA6808331B01134400221A60AD
S31510003010FB7AFA6808331B011344043300221A6042
S31510003020FB7AFA681B011344883300221A60FB7A74
S31510003030FA681B0113448C3300221A60BB7A002BEA
S3151000304023D0FB7A7A681268F96808331B010B449F
S3151000305004331A607B681B79012B03D17B6943F417
S3151000306000137B617B685B79012B03D17B6943F489
S3151000307080137B617B6943F080637B61FB7AFA681E
S3151000308008331B0113447A691A6000BF1837BD460E
S3151000309080BD00BF08710010487100108C710010BF
S315100030A080B586B000AFF8600B467A60FB72FA7A8C
S315100030B0FB681B6803F07F039A4202D9464801F069
S315100030C08BFC7B68002B02D1444801F085FC7B68A1
S315100030D09B78C3F30303DBB2082B02D9404801F0F7
S315100030E07BFCFB7A1946F86802F08DFE034683F0E6
S315100030F00103DBB2002B02D13A4801F06DFC00232C
S315100031007B61FB7AFA6808331B0113441B6803F0D2
S315100031107063B3F1406F58D0FB7AFA6808331B011D
S3151000312013441B6823F07062FB7A42F00062F96860
S3151000313008331B010B441A607B685B68C3F31C02DF
S31510003140FB7A1146FA6808331B01134404331960DD
S315100031507B689B7803F02003DBB2002B03D07B69DE
S3151000316043F4C0037B617B689B7803F01003DBB2EA
S31510003170002B03D07B6943F480137B617B689B78BB
S31510003180C3F30303DBB21B0403F470227B691343FE
S3151000319043F040637B61FB7A7A689268F9681B0199
S315100031A00B4488331A60FB7A7A68D268F9681B0177
S315100031B00B448C331A60FB7AFA6808331B011344EC
S315100031C07A691A6000233B6101E001233B613B6988
S315100031D018461837BD4680BDC47100100472001021
S315100031E02C7200105872001080B588B000AFF860CD
S315100031F00B467A60FB72FA7AFB681B6803F07F0352
S315100032009A4202D93E4801F0E7FB7B68002B02D1B7
S315100032103C4801F0E1FBFB7A1946F86802F0F3FD31
S31510003220034683F00103DBB2002B02D1364801F0CE
S31510003230D3FBFB7AFA6808331B0113441B68BB6186
S31510003240BB691B0E03F00F037B617B69022B02D057
S315100032507B69062B4BD1FB7AFA6808331B011344A2
S3151000326004331B6823F060417A68536861F31C03CA
S315100032705360BB695B0D03F00103D9B27A6893788A
S3151000328061F345139370BB691B0D03F00103D9B2AB
S315100032907A68937861F304139370BB691B0C03F07F
S315100032A00F03D9B27A68937861F303039370BB69FD
S315100032B09AB27B681A80FB7AFA681B01134488332A
S315100032C01A687B689A60FB7AFA681B0113448C3380
S315100032D01A687B68DA60FB689B687B69022B02D1EF
S315100032E00023FB6107E041F2B943FB6103E0FB6891
S315100032F09B680123FB61FB6918462037BD4680BDDC
S3151000330090720010D0720010F872001080B584B060
S3151000331000AF786039603B68002B02D12C4801F071
S315100033205BFB7B681B6803F00053002B48D07B685F
S31510003330D3F88030BB607B68D3F8843023F06041CB
S315100033403A68536861F31C035360BB685B0D03F066
S315100033500103D9B23A68937861F345139370BB6849
S315100033601B0D03F00103D9B23A68937861F3041385
S315100033709370BB681B0C03F00F03D9B23A689378AD
S3151000338061F303039370BB689AB23B681A807B683B
S31510003390D3F888203B689A607B68D3F88C203B680A
S315100033A0DA607B68DB6CC3F3080399B23A6853881A
S315100033B061F3CF1353807B689B680023FB6001E0A9
S315100033C00123FB60FB6818461037BD4680BD00BF61
S315100033D03073001080B586B000AFF860B9607A60BF
S315100033E03B60BB68002B02D1274801F0F5FAA022FA
S315100033F00021B86803F036FAF868FFF779FB034640
S31510003400FB75FB7D2149BA6841F82320BB687A68B1
S315100034101A60BB683A685A601D4B1E4A1A60BB6830
S315100034201B68002B04D01C49F86802F026FC03E048
S315100034301949F86802F03FFCFB7D184AD356184626
S3151000344002F0CEFBFB7D164AD356184602F0C8FB97
S31510003450FB7D144AD356184602F0C2FBFB7D124A76
S31510003460D356184602F0BCFBFB7D104AD3561846BD
S3151000347002F0B6FBFB7D0E4AD356184602F0B0FB9F
S3151000348000BF1837BD4680BD58730010C403002016
S31510003490D0030020293A001000CC00045C6E001006
S315100034A0606E0010646E0010686E00106C6E001076
S315100034B0706E001080B586B000AFF860B9607A60A3
S315100034C0BB68002B02D1394801F086FA7B68002BC5
S315100034D002D1374801F080FA7B681B791A46FB68DF
S315100034E01B6803F07F039A4202D9324801F074FA3E
S315100034F07B681B791946F86802F085FC034683F051
S315100035000103DBB2002B02D12B4801F065FA7B6870
S315100035101B791A46BB68134493F84C30DBB2002B68
S315100035203CD17B681B689B7803F01003DBB2002B41
S3151000353008D07B681B791A46BB681344042283F8AB
S315100035404C2007E07B681B791A46BB68134403229C
S3151000355083F84C207B6819797B681B681A46F868D3
S31510003560FFF79EFD0346002B0DD101233B617B68BF
S315100035701B791A463B6993401946F86802F0BAFB64
S3151000358000237B610DE07B681B791A46BB681344E8
S31510003590002283F84C2001237B6102E041F2B44300
S315100035A07B617B6918461837BD4680BD7C73001059
S315100035B0A0730010C87300101074001080B586B088
S315100035C000AFF860B9607A60BB68002B02D12A4858
S315100035D001F002FA7B68002B02D1284801F0FCF9B1
S315100035E07B681B791A46FB681B6803F07F039A42B7
S315100035F002D9234801F0F0F97B681B791946F8685F
S3151000360002F001FC034683F00103DBB2002B02D16A
S315100036101C4801F0E1F97B681B791A46BB68134414
S3151000362093F84C30DBB2002B1ED17B681B791A46FF
S31510003630BB681344012283F84C207B681B791A4619
S315100036407B681968BB68023243F8221001233B617C
S315100036507B681B791A463B6993401946F86802F055
S3151000366049FB00237B6102E041F2B7437B617B6932
S3151000367018461837BD4680BD547400107874001073
S31510003680A0740010E874001080B586B000AFF86022
S31510003690B9601346FB71BB68002B02D1204801F0BC
S315100036A09BF9FA79FB681B6803F07F039A4202D9EB
S315100036B01C4801F091F9FB791946F86802F0A3FB52
S315100036C0034683F00103DBB2002B02D1164801F04A
S315100036D083F901237B61FB797A6902FA03F31946B0
S315100036E0F86802F018FBFB79FA6808331B011344DB
S315100036F01B687B82FA79798ABB68183243F82210E4
S31510003700FB7901221946F868FFF7FCFBFB79BA68CA
S315100037101344002283F84C2000BF1837BD4680BDE5
S315100037202C750010507500109075001080B586B07D
S3151000373000AFF860B9601346FB71BB68002B02D16D
S315100037401A4801F049F9FA79FB681B6803F07F0300
S315100037509A4202D9164801F03FF9FB791946F868E2
S3151000376002F051FB034683F00103DBB2002B02D1BA
S31510003770104801F031F901237B61FB797A6902FA6D
S3151000378003F31946F86802F0C6FAFA79BB680232F2
S31510003790002143F82210FB79BA681344002283F8FB
S315100037A04C2000BF1837BD4680BD00BFC87500103D
S315100037B0EC7500102C76001080B582B000AF7860E2
S315100037C039603B68002B02D10B4801F005F97B6884
S315100037D01B6803F00053002B06D0E021786802F036
S315100037E09AFA3B6800229A643B68002283F85C20B0
S315100037F000BF0837BD4680BD647600102DE9B04F76
S3151000380088B000AF78600023FB77786802F0FEF985
S315100038100246154B1340002B1DD17B689B6A002274
S315100038209A469346C7E904AB7B681B6B0022984601
S315100038309146C7E90289D7E90401D7E9022300EACC
S31510003840020401EA030544EA0503002B14BF012311
S315100038500023FB7701E00123FB77FB7F1846203717
S31510003860BD46BDE8B08F00BF0700030080B58AB023
S3151000387000AFF860B9607A604FF4A6537B62FF23FD
S315100038803B6200233B6218E00123FB61FA693B6A45
S3151000389002FA03F31946F86802F0D2F90346002B30
S315100038A008D03B6ADBB21946F868FFF747F90346BA
S315100038B0002B06D13B6A01333B623B6A0F2BE3D9DF
S315100038C000E000BF3B6A0F2B00F2A680BB6893F89E
S315100038D05C30DBB2002B36D03B6A072B33D8012382
S315100038E0BB61BA693B6A02FA03F3802B06D0802BC0
S315100038F024D8202B0AD0402B04D01FE041F2BC4321
S315100039007B621FE041F2BD437B621BE0BB689B6C90
S315100039101946F868FFF7FAFC78627B6A002B08D123
S31510003920BB689B6C1B881A46BB681A6641F2BB4380
S315100039307B62B968F868FFF73FFF03E04FF4A653C0
S315100039407B6200BF5EE0BA683B6A13444C331B7857
S31510003950DBB2013B032B51D801A252F823F000BF72
S3151000396071390010BD390010D3390010E939001033
S315100039703B6AD9B2BB683A6A023253F822301A4609
S31510003980F868FFF731FC78627B6A002B0ED1BB68B2
S315100039903A6A023253F822301B881946BB683A6AD3
S315100039A0183243F8221041F2B8437B623B6ADBB20D
S315100039B01A46B968F868FFF7B9FE23E041F2C14329
S315100039C07B623B6ADBB21A46B968F868FFF7AEFE4F
S315100039D018E041F2B5437B623B6ADBB21A46B9681E
S315100039E0F868FFF751FE0DE0BA683B6A13444C3392
S315100039F002221A7041F2B6437B6203E04FF4A653DB
S31510003A007B6200BF01237B617A693B6A02FA03F38A
S31510003A101946F86802F023F97B683A6A1A607B6ADD
S31510003A2018462837BD4680BD90B589B002AF78607C
S31510003A3039603B68002B02D1244800F0CDFFFF23EC
S31510003A40FB6000233B61786802F0E0F838613A6960
S31510003A501F4B1340002B09D041F2BE437B611C491A
S31510003A60786802F0DFF83B69FB6014E03B6903F00D
S31510003A700103002B07D041F2BF437B610121786817
S31510003A8002F0D0F807E007F10C031A463968786897
S31510003A90FFF7ECFE78613B681B68002B0AD03B6889
S31510003AA01C68FA683B685B68009313467A69396844
S31510003AB07868A0477868FFF7A1FE0346002BC2D1AD
S31510003AC000BF00BF1C37BD4690BD00BF88760010F2
S31510003AD00600030080B500AF094B1B68002B02D10E
S31510003AE0084800F079FF084B1B68054A1268114612
S31510003AF006489847BFF34F8F00BF00BF80BD00BF79
S31510003B00C4030020AC760010D00300200040024011
S31510003B1080B500AF094B5B68002B02D1084800F056
S31510003B205BFF084B1B68054A5268114606489847C2
S31510003B30BFF34F8F00BF00BF80BD00BFC40300207E
S31510003B40DC760010D00300200050024080B500AF94
S31510003B50094B9B68002B02D1084800F03DFF084B2B
S31510003B601B68054A9268114606489847BFF34F8F5F
S31510003B7000BF00BF80BD00BFC40300200C7700103B
S31510003B80D003002000400A4080B582B000AF7860B4
S31510003B907B68002B16D07B6800229A647B684FF0F6
S31510003BA0C052DA637B684FF480521A64074A7B6806
S31510003BB09A647B689B6C184600F0AEF9786802F040
S31510003BC077F900E000BF0837BD4680BDD40300205A
S31510003BD080B58AB000AFF860B9607A603B60FB6868
S31510003BE093F834307A68B968F86802F089F938625F
S31510003BF03B6A002B01D03B6A43E0386800F0D2F9EB
S31510003C0038623B6A002B01D03B6A3AE0FB681B6BBB
S31510003C10FB61FB681B69BB61FA697B681344013B56
S31510003C207B627B6ABA69B3FBF2F2B96901FB02F2F5
S31510003C309B1A002B1ED07A6ABB69B2FBF3F30133D1
S31510003C407B617B69BA6902FB03F3013B7B6211E07E
S31510003C50FB6923F07F430D4A43F010631360F86845
S31510003C6000F06AF938623B6A002B08D1FA69BB6921
S31510003C701344FB61FA697B6A9A42E9D900E000BFF6
S31510003C803B6A18462837BD4680BD00BF0400024077
S31510003C9090B589B000AFF860B9607A603B60FB6898
S31510003CA093F83930FB747B68002B01D1042353E061
S31510003CB0FB7C3A68B968F86802F022F9F861FB698A
S31510003CC0002B01D0FB6947E0FB681B6BBB613B68AF
S31510003CD07B613BE0224B1C1D786802F044F90346D9
S31510003CE023607B6804337B60FB7C042B07D1BB69A4
S31510003CF023F07F431A4A43F0C063136017E0FB7C3E
S31510003D00082B12D1164B03F10804786802F02BF930
S31510003D10034623607B6804337B60BB6923F07F43D3
S31510003D200F4A43F0E063136001E0042314E0F868DF
S31510003D3000F002F9F861FB69002B0BD1FB7CBA6924
S31510003D401344BB61FB7C7A69D31A7B617B69002BB8
S31510003D50C0D100E000BFFB6918462437BD4690BDB0
S31510003D600400024080B58CB000AFF860B9607A608C
S31510003D70FB70FB6893F83530FB77FB7F7A68B96880
S31510003D80F86802F0BDF8B861BB69002B01D0BB69B9
S31510003D9055E0FB681B6B7B62FB68DA68FB685B6946
S31510003DA0B2FBF3F37B617A6A7B6913445A1E7B6913
S31510003DB05B421340FB62FA6A7B6A9A4203D1FA6A43
S31510003DC07B691344FB627B68BB6234E0FA6A7B6AE8
S31510003DD0D31A3B623A6ABB6A9A4201D9BB6A3B6202
S31510003DE0FB7F3A6AB2FBF3F33B617B6A23F07F43B6
S31510003DF0154A43F0807313603B691A04FB781B0263
S31510003E001A43114B043342F0FF021A60F86800F0AF
S31510003E1093F8B861BB69002B01D0BB690FE0BA6A91
S31510003E203B6AD31ABB627A6A3B6A13447B62FA6AAC
S31510003E307B691344FB62BB6A002BC7D1002318466B
S31510003E403037BD4680BD00BF0400024090B589B032
S31510003E5000AFF860B9607A603B60FB6893F8373062
S31510003E60FB747B687B613B68002B01D104234CE01B
S31510003E70FB7C7A68B968F86802F042F8F861FB6969
S31510003E80002B01D0FB6940E0FB681B6BBB6136E081
S31510003E90BB6923F07F431F4A43F00073136097F802
S31510003EA030301A061B4B043362F07F421A60194BEE
S31510003EB003F10804386802F056F803462360F868E0
S31510003EC000F03AF8F861FB69002B0CD07B6B002BE5
S31510003ED002D07B6BBA691A60BB6B002B13D0BB6B1D
S31510003EE000221A600FE0FB7C7A69D31A7B61FB7C97
S31510003EF03A6813443B60FB7CBA691344BB617B6927
S31510003F00002BC5D100E000BFFB6918462437BD461B
S31510003F1090BD00BF0400024080B582B000AF78604B
S31510003F200C220449786802F09BFC00BF0837BD4696
S31510003F3080BD00BF3C77001080B584B000AF7860BC
S31510003F40174B70221A707B689B6C5A1C7B689A649C
S31510003F507B689B6CFB60FB68114898477B689B6C81
S31510003F605A1E7B689A640E4B1B78FB72FB7A03F021
S31510003F702003002B01D067230EE0FB7A03F0100319
S31510003F80002B01D0682307E0FB7A03F00103002B16
S31510003F9001D0692300E0002318461037BD4680BDC6
S31510003FA00000024080B483B000AF78607B68064A98
S31510003FB0934201D06B2300E0002318460C37BD4610
S31510003FC05DF8047B704700BF6B66656B80B483B089
S31510003FD000AF786039607B68002B02D03B68002BFD
S31510003FE001D1042310E07B68DB791F2B0BD9094A1A
S31510003FF03B681B6813603B681A68064B1B689A423D
S3151000400001D0692300E0002318460C37BD465DF841
S31510004010047B70471000024080B483B000AF786014
S3151000402039607B68002B02D03B68002B01D104233A
S3151000403008E07B68DB791F2B03D9054B1A683B68B0
S315100040401A60002318460C37BD465DF8047B70478E
S315100040501000024080B487B000AFF860B9607A6093
S315100040603B60104B03F58053DA6C7B681A403B6853
S3151000407022FA03F3FB74FB7C0F2B05D1FB68BA689D
S3151000408002FB03F37B6105E0FB7C074A32F8133031
S315100040909B027B617B6918461C37BD465DF8047B25
S315100040A0704700BF007004404877001080B584B098
S315100040B000AF3E4BD3F888303C4A43F47003C2F845
S315100040C088303B4B4CF22052DA81394B4DF6281290
S315100040D0DA81374B4FF4E9721A80344B5B6903F47B
S315100040E00033002B1BD1BFF34F8F00BFBFF36F8F71
S315100040F000BF2E4B0022C3F85022BFF34F8F00BFD4
S31510004100BFF36F8F00BF294B5B69284A43F4003316
S315100041105361BFF34F8F00BFBFF36F8F00E000BF37
S31510004120224B5B6903F48033002B38D11F4B0022DE
S31510004130C3F88420BFF34F8F00BF1C4BD3F88030D9
S31510004140FB60FB685B0BC3F30E03BB60FB68DB080D
S31510004150C3F309037B60BB685A0143F6E07313404F
S315100041607A68920711491343C1F860327B685A1E68
S315100041707A60002BEFD1BB685A1EBA60002BE5D1CE
S31510004180BFF34F8F00BF094B5B69084A43F4803376
S315100041905361BFF34F8F00BFBFF36F8F00E000BFB7
S315100041A002F06BF900BF1037BD4680BD00ED00E090
S315100041B00020054080B483B000AF7860044A7B6865
S315100041C0136000BF0C37BD465DF8047B704700BF17
S315100041D0C003002080B400AF054B03F580531A4688
S315100041E0044B536400BFBD465DF8047B704700BFA7
S315100041F0007004400000170180B483B000AF03467E
S31510004200FB710B4B1B78DBB223F03803DAB2FB7968
S31510004210DB00DBB203F03803DBB205491343DBB234
S315100042200B7000BF0C37BD465DF8047B704700BFAE
S315100042300040064080B500AFFFF7CCFF0B48FEF7F5
S3151000424053FB0B4B1846FFF7B5FF00231846FFF735
S31510004250D3FF084A00210020FEF7E0FB0648FEF7D0
S3151000426033FA064B064A1A6000BF80BD7C770010F1
S3151000427080C3C9016F7700107477001034010020D5
S3151000428080D1F00880B500AF084A09490948FEF701
S3151000429031FD012200210748FEF734FE0123064AAC
S315100042A001210448FEF780FE00BF80BDC068780477
S315100042B08477001000400A409877001080B485B0CB
S315100042C000AF78607B681A0C084B1344FB60FB68E0
S315100042D019687B689BB201229A40FB680A431A60F0
S315100042E000BF1437BD465DF8047B7047007004406C
S315100042F080B500AF0748FFF7E1FF04220E210648FC
S3151000430002F0D4F804220F21034802F0CFF800BFC0
S3151000431080BD00BF090038100090044080B582B0FF
S3151000432000AFFDF7D7FE0023FB7109E0FB791B01F7
S315100043300A4A1344184601F01BFBFB790133FB7143
S31510004340FB79062BF2D9FDF72FF807220449054809
S31510004350FDF73CF800BF0837BD4680BD14040020A9
S3151000436084040020A077001080B582B000AF00232F
S315100043707B6029E07A6813465B0013449B00194A58
S3151000438098187B685B02184A13441022202100F00B
S3151000439052FF7A6813465B0013449B00134A981821
S315100043A07B685B02124A13441022202100F043FF5F
S315100043B07B68CC2202FB03F30E4A13441846FDF722
S315100043C0A5FB7B6801337B607B68002BD2DDFCF795
S315100043D045FE01210848FCF751FE00BF0837BD46CF
S315100043E080BD00BFBC040020D4040020C8040020F7
S315100043F0D4060020480100201402002080B400AF2B
S31510004400BFF34F8F00BF064BDB6803F4E06204492D
S31510004410044B1343CB60BFF34F8F00BF00BFFDE7C4
S3151000442000ED00E00400FA0580B500AF0348FCF784
S3151000443015F8034B00221A7000BF80BD507800108B
S31510004440D609002080B400AF034B1B781846BD4632
S315100044505DF8047B704700BFD609002080B584B094
S3151000446000AFFCF71FF9F860FCF726F9B860FB6897
S31510004470023301331B789BB21B029AB2FB689B78FE
S315100044809BB21344FB80FCF72DF903461A46FB88B2
S31510004490934210D1BB684D225A71FCF717F90346A7
S315100044A01A46BB689A71BB6800225A70FCF736F937
S315100044B0034B01221A7000BF1037BD4680BD00BFE6
S315100044C0D609002080B582B000AFFCF7EBF8786013
S315100044D0FCF7F2F838603B684D225A71FCF7F6F893
S315100044E003461A463B689A717B689B78013B082BFA
S315100044F000F29A8001A252F823F000BF2145001065
S315100045003D450010594500107745001093450010A1
S31510004510B1450010CF450010ED4500100B460010B8
S315100045200220FDF7B5FA03461846FCF7E7F83B6894
S315100045302022DA703B6800225A7079E00420FDF7D9
S31510004540A7FA03461846FCF7D9F83B682022DA701A
S315100045503B6800225A706BE00220FDF799FA034679
S3151000456020331846FCF7CAF83B682022DA703B68FD
S3151000457000225A705CE00620FDF78AFA03461846B8
S31510004580FCF7BCF83B682022DA703B6800225A70B0
S315100045904EE00220FDF77CFA034640331846FCF73E
S315100045A0ADF83B682022DA703B6800225A703FE073
S315100045B00220FDF76DFA034660331846FCF79EF8A5
S315100045C03B682022DA703B6800225A7030E00220E5
S315100045D0FDF75EFA0346C0331846FCF78FF83B68C2
S315100045E02022DA703B6800225A7021E00220FDF783
S315100045F04FFA0346E0331846FCF780F83B68202252
S31510004600DA703B6800225A7012E00220FDF740FA79
S31510004610034680331846FCF771F83B684022DA707F
S315100046203B6800225A7003E03B6832225A7000BF82
S31510004630FCF774F800BF0837BD4680BD80B584B05E
S3151000464000AFFCF72FF8F860FCF736F8B860FB6897
S31510004650023301331B789AB2FB689B789BB21B021C
S315100046609BB21344FB80FB88082B66D801A252F834
S3151000467023F000BF994600109F460010D346001045
S315100046803B4700103B4700103B4700103B470010CC
S315100046903B4700100747001001F033FF51E0FCF7CD
S315100046A015F8034603F04003002B0ED1284800F0FE
S315100046B055F80346BB80B7F90430002B01D1002210
S315100046C000E03222BB685A703BE0BB6832225A7057
S315100046D037E0FBF7FBFF034603F04003002B0ED138
S315100046E01C4800F03BF80346BB80B7F90430002B9A
S315100046F001D1002200E03222BB685A7021E0BB686B
S3151000470032225A701DE0FBF7E1FF034603F0400327
S31510004710002B0ED1104800F021F80346BB80B7F9E4
S315100047200430002B01D1002200E03222BB685A70FF
S3151000473007E0BB6832225A7003E0BB6832225A7017
S3151000474000BFFBF7EBFF00BF1037BD4680BD00BFB3
S3151000475055FE01AA55FD02AA55FC03AA80B586B0DE
S3151000476000AF78601C4A07F10C0392E8030083E857
S3151000477003007B68FB60012200210120FCF7FEFE8E
S315100047800346FB82B7F91630002B09D10120FDF73D
S315100047909FF9034619460120FDF714F90346FB82DB
S315100047A0B7F91630002B08D107F10C030822194669
S315100047B00120FDF78DF80346FB82B7F91630002B62
S315100047C004D10120FCF7AEFF0346FB82B7F9163081
S315100047D018461837BD4680BD9078001080B400AFDB
S315100047E0BFF34F8F00BF064BDB6803F4E06204494A
S315100047F0044B1343CB60BFF34F8F00BF00BFFDE7E1
S3151000480000ED00E00400FA0590B583B000AF002279
S3151000481000210120FCF7B2FE3B4604221946012076
S31510004820FCF7DCFF0120FCF77DFF3B68154A93423D
S3151000483008D101F095FE0346002B03D000F026F8B0
S3151000484001F063FE01F071FE0346FB8001E001F00A
S31510004850F7FFFC8801F069FE03462344632BF6D963
S31510004860FFF7F0FD034683F00103DBB2002B05D002
S315100048703B68054A934201D000F02EF801F0E0FFA4
S31510004880FCE700BF55FC03AA55FD02AA80B582B00D
S3151000489000AF104A3B4692E8030083E8030001226A
S315100048A000210120FCF76AFE0120FDF711F90346ED
S315100048B019460120FDF786F83B46082219460120C5
S315100048C0FDF706F80120FCF72DFF00BF0837BD469F
S315100048D080BD00BF9878001080B582B000AF124B33
S315100048E03B60114B1B687B607B68104A934216D362
S315100048F07B680F4A934212D24AF201014FF0805060
S31510004900FDF706FC01210020FCF7CEFB01F001FEAD
S31510004910084B064A9A603868D0F800F0004700BF86
S315100049200837BD4680BD00BF04A0001000A00010CF
S315100049300080071000ED00E080B400AF034B0022AA
S315100049401A7000BFBD465DF8047B7047D70900207A
S3151000495080B500AF0D490020FCF7EAFB0346002B9B
S3151000496011D10A4B1B6840F2F17293420BD1074BDF
S315100049701B79002B07D106490648FBF71DFE034697
S315100049801A46054B1A7000BF80BD00BFF408002000
S315100049900A090020FA080020D709002080B500AFC8
S315100049A00B4B1B78002B10D00A4B4FF4FE621A608B
S315100049B0084B00221A71074B08225A71054900202C
S315100049C0FCF7F8FB024B00221A7000BF80BD00BF37
S315100049D0D70900200409002010B50F4904460F48D6
S315100049E002F043F80C49204602F03FF80C49D1F882
S315100049F08030013B002BC1F8803008DB8B6F5A1CCE
S31510004A008A670A221A70BDE8104001F028BF783173
S31510004A100A2001F049FFF6E78C090020A47800105F
S31510004A20140900202DE9F041D5685769EB0280463C
S31510004A300E46144605D5384602F052F945F01005D3
S31510004A40A061124B2B408BB1A169384602F051F987
S31510004A50002806DAE36843F08003E3604FF0FF3086
S31510004A6011E025F4003525F01005E5603246414683
S31510004A70384602F044F920F00041761AA1690E4436
S31510004A80A6610028E6D1BDE8F08100BF1000020043
S31510004A90F8B5304F3C68002851D10020F8BD236886
S31510004AA0B3F1805F39D1D4E9013151B10D68B5F157
S31510004AB0805F06D1DD1C4B682B4463608B68A36056
S31510004AC0F1E7B34207DB734505DC20464FF0005390
S31510004AD040F80C3BE2E7634511D920464FF00055EC
S31510004AE0666040F80C5B22F0030542199B1BA2601E
S31510004AF0033B4FF080544451C2E90131CEE761B90E
S31510004B00A0EB830000F058F90130C6D04FF00053E7
S31510004B10C4E9003604F10C00C0E72546A468002C51
S31510004B20BDD10C3000F048F9431CB6D04FF00053FD
S31510004B30C0E90036846055B938600C30AEE7C21C47
S31510004B409608002506F10A0C06F1030EE7E7A860A1
S31510004B50F3E700BFCC09002010B5FFF799FF044614
S31510004B6028B90449172202F0CAF801F078FE204647
S31510004B7010BD00BFB97800102DE9F843C6683C4B4C
S31510004B80334004460D4690461BB902273846BDE809
S31510004B90F883D0F81490484602F0A5F80746002886
S31510004BA0F3D1B8F1010F2CD0B8F1020F2ED0B8F115
S31510004BB0000FEAD1002DE8DBB00404D52368E26AC1
S31510004BC09A4238BFE362A169A9420EDC2368E26A01
S31510004BD0934238BF134622695818801AA84204DB3C
S31510004BE0206B01EB000CAC4531DC0023C4E901332A
S31510004BF046F02006A56226F4032626F04006E66057
S31510004C00C4E7204600F036F80544D3E7484602F0DC
S31510004C1067F8B0F1000CE26804DA42F08002E26054
S31510004C200127B3E72168A369E06A81422CBF5B18AC
S31510004C301B1821699206A3EB010303D5A26A9342BE
S31510004C40B8BF13466345ACBFED186544B2E76D1A9D
S31510004C50B10744BF281AA060F10744BF9B1AEB1A8C
S31510004C60154448BF6360256026F02006C3E700BFE1
S31510004C7003001000C3689A0705D10E4B21221A6053
S31510004C804FF0FF30704703F020021B0309D512B115
S31510004C90806A013870470368826900691344181ADC
S31510004CA0F7E70AB1806A704703688269006913449E
S31510004CB0181A7047D009002010B5174A1749002056
S31510004CC001F04EFF4FF480734FF4806200211248BA
S31510004CD001F003FF124A1349012001F041FF4FF47E
S31510004CE080730F484FF48062002101F0F6FE0E4BE0
S31510004CF01B68022B0EDD0D4A0A49022001F030FF17
S31510004D00BDE8104009484FF480734FF480620021CB
S31510004D1001F0E3BE10BD00BF14090020D1780010C9
S31510004D2050090020D3780010A07800108C090020BC
S31510004D3070B50E490E4C0B6822680E4D55F82300BF
S31510004D4055F822603044013A20F0004045F823001F
S31510004D502260013B01320B6002D13623236070BD05
S31510004D60013304BF36230B60F9E700BF240200208D
S31510004D7020020020280200200A4B0B49172230B5CA
S31510004D801A600A4B0A4C36221A600A4A002301336B
S31510004D9000EB1045372B42F8045B04FB0010F6D1EC
S31510004DA030BD00BF20020020E119D6662402002083
S31510004DB0CD0D01002802002070B50B4D2B680BB9E4
S31510004DC00A4B2B6003302E6820F00304344420462F
S31510004DD000F02EF810B92C60304670BD044B0C2232
S31510004DE01A604FF0FF36F7E7C8090020D8090020EF
S31510004DF0D0090020F8B5044638B90B4B0B4E1F6886
S31510004E000546A74205DC2846F8BDBDE8F84001F086
S31510004E1011BF304601F00EFF002818BF4FF0FF35C6
S31510004E2001343C36EDE700BFA078001014090020CD
S31510004E30044B23B1984234BF002001207047184616
S31510004E40704700BFD819002008B502F08CFD08BDC8
S31510004E5008B502F088FD08BD08B502F084FD08BD4E
S31510004E6008B502F080FD08BD08B502F07CFD08BD4E
S31510004E7008B502F078FD08BD08B502F074FD08BD4E
S31510004E8008B502F070FD08BD08B502F06CFD08BD4E
S31510004E9008B502F068FD08BD08B502F064FD08BD4E
S31510004EA008B502F060FD08BD08B502F05CFD08BD4E
S31510004EB008B502F058FD08BD08B502F054FD08BD4E
S31510004EC008B502F050FD08BD08B502F04CFD08BD4E
S31510004ED008B502F048FD08BD08B502F044FD08BD4E
S31510004EE008B502F040FD08BD08B502F03CFD08BD4E
S31510004EF008B502F038FD08BD08B502F034FD08BD4E
S31510004F0008B502F030FD08BD08B502F02CFD08BD4D
S31510004F1008B502F028FD08BD08B502F024FD08BD4D
S31510004F2008B502F020FD08BD08B502F01CFD08BD4D
S31510004F3008B502F018FD08BD08B502F014FD08BD4D
S31510004F4008B502F010FD08BD08B502F00CFD08BD4D
S31510004F5008B502F008FD08BD08B502F004FD08BD4D
S31510004F6008B502F000FD08BD08B502F0FCFC08BD4E
S31510004F7008B502F0F8FC08BD08B502F0F4FC08BD4F
S31510004F8008B502F0F0FC08BD08B502F0ECFC08BD4F
S31510004F9008B502F0E8FC08BD08B502F0E4FC08BD4F
S31510004FA008B502F0E0FC08BD08B502F0DCFC08BD4F
S31510004FB008B502F0D8FC08BD08B502F0D4FC08BD4F
S31510004FC008B502F0D0FC08BD08B502F0CCFC08BD4F
S31510004FD008B502F0C8FC08BD08B502F0C4FC08BD4F
S31510004FE008B502F0C0FC08BD08B502F0BCFC08BD4F
S31510004FF008B502F0B8FC08BD08B502F0B4FC08BD4F
S3151000500008B502F0B0FC08BD08B502F0ACFC08BD4E
S3151000501008B502F0A8FC08BD08B502F0A4FC08BD4E
S3151000502008B502F0A0FC08BD08B502F09CFC08BD4E
S3151000503008B502F098FC08BD08B502F094FC08BD4E
S3151000504008B502F090FC08BD08B502F08CFC08BD4E
S3151000505008B502F088FC08BD08B502F084FC08BD4E
S3151000506008B502F080FC08BD08B502F07CFC08BD4E
S3151000507008B502F078FC08BD08B502F074FC08BD4E
S3151000508008B502F070FC08BD08B502F06CFC08BD4E
S3151000509008B502F068FC08BD08B502F064FC08BD4E
S315100050A008B5FEF717FD08BD08B5FEF713FD08BDD8
S315100050B008B5FEF70FFD08BD08B5FEF70BFD08BDD8
S315100050C008B5FEF707FD08BD08B5FEF703FD08BDD8
S315100050D008B502F048FC08BD08B502F044FC08BD4E
S315100050E008B502F040FC08BD08B502F03CFC08BD4E
S315100050F008B502F038FC08BD08B502F034FC08BD4E
S3151000510008B502F030FC08BD08B502F02CFC08BD4D
S3151000511008B502F028FC08BD08B502F024FC08BD4D
S3151000512008B502F020FC08BD08B502F01CFC08BD4D
S3151000513008B502F018FC08BD08B5FEF7E9FC08BD75
S3151000514008B5FEF7E5FC08BD08B5FEF7E1FC08BD9D
S3151000515008B5FEF7DDFC08BD08B5FEF7D9FC08BD9D
S3151000516008B5FEF7D5FC08BD08B502F0FCFB08BD76
S3151000517008B502F0F8FB08BD08B502F0F4FB08BD4F
S3151000518008B502F0F0FB08BD08B502F0ECFB08BD4F
S3151000519008B502F0E8FB08BD08B502F0E4FB08BD4F
S315100051A008B502F0E0FB08BD08B502F0DCFB08BD4F
S315100051B008B502F0D8FB08BD08B502F0D4FB08BD4F
S315100051C008B502F0D0FB08BD08B502F0CCFB08BD4F
S315100051D008B502F0C8FB08BD08B502F0C4FB08BD4F
S315100051E008B5FEF7B3FC08BD08B5FEF7AFFC08BD61
S315100051F008B5FEF7ABFC08BD08B5FEF7A7FC08BD61
S3151000520008B5FEF7A3FC08BD08B5FEF79FFC08BD60
S3151000521080B500AFFCF73EFF0346184680BD80B54B
S3151000522000AFFCF7C9FE00BF80BD80B500AFFCF72C
S31510005230E7FE00BF80BD80B586B000AFF8607B602A
S315100052400B46FB721346BB720023FB75FB68002BE3
S3151000525016D07B68002B13D0FB7A002B10D0BB7AAC
S31510005260002B0DD0FB68FA7A9A70FB68BA7ADA705E
S31510005270FB687A689A60F86800F007F80123FB75F6
S31510005280FB7D18461837BD4680BD80B582B000AF8D
S3151000529078607B68002B1CD0FFF7C1FF7B6800226B
S315100052A01A707B6800225A707B6800221A717B681C
S315100052B000225A717B6898687B689B781A467B68CF
S315100052C0DB7802FB03F31A46002101F0CBFAFFF755
S315100052D0ACFF00BF0837BD4680BD80B584B000AFB7
S315100052E0786039600023FB737B68002B2ED0FFF7A4
S315100052F096FF7B681B79002B26D07B689B687A68A3
S31510005300127811467A68D27801FB02F299187B68F6
S31510005310DB781A46386801F0A3FA7B681B79013BE3
S31510005320DAB27B681A717B681B780133DAB27B6854
S315100053301A707B681A787B689B789A4202D17B68D0
S3151000534000221A700123FB73FFF76FFFFB7B1846D1
S315100053501037BD4680BD80B584B000AF7860396027
S315100053600023FB737B68002B48D0FFF758FF7B6840
S315100053701A797B689B789A4211D17B6801225A71FF
S315100053807B681B780133DAB27B681A707B681A78EF
S315100053907B689B789A4202D17B6800221A707B68E0
S315100053A09B687A68527811467A68D27801FB02F2C5
S315100053B098187B68DB781A46396801F051FA7B68D1
S315100053C01A797B689B789A4205D27B681B790133E0
S315100053D0DAB27B681A717B685B780133DAB27B6864
S315100053E05A707B685A787B689B789A4202D17B68A0
S315100053F000225A700123FB73FFF717FFFB7B184639
S315100054001037BD4680BD80B584B000AF7860396076
S315100054100023FB737B68002B19D0FFF700FF7B6816
S315100054201B79002B11D07B689B687A68127811461D
S315100054307A68D27801FB02F299187B68DB781A46F3
S31510005440386801F00DFA0123FB73FFF7EEFEFB7BC4
S3151000545018461037BD4680BD80B584B000AF786061
S315100054600023FB737B68002B1ED0FFF7D8FE7B68EA
S315100054701B79002B16D07B681B79013BDAB27B684F
S315100054801A717B681B780133DAB27B681A707B68F5
S315100054901A787B689B789A4202D17B6800221A7030
S315100054A00123FB73FFF7C1FEFB7B18461037BD4681
S315100054B080BD80B485B000AF786039604FF60D437B
S315100054C0FB817B681B683A689A4209D37B681A6825
S315100054D07B689B6813443A689A4201D20023FB8189
S315100054E0B7F90E3018461437BD465DF8047B704781
S315100054F080B485B000AF786039604FF60D43FB81FC
S315100055007B685B683A689A4209D37B685A687B68FD
S315100055109B6813443A689A4201D20023FB81B7F97B
S315100055200E3018461437BD465DF8047B704780B4BC
S3151000553085B000AF03463971FB710023FB81FB79FF
S31510005540012B11D8FB79002B05D13B7903F0010310
S31510005550DBB2002B08D0FB79012B08D13B7903F085
S315100055600203DBB2002B02D14FF60F43FB81B7F9D2
S315100055700E3018461437BD465DF8047B704780B46C
S3151000558083B000AF78600B46FB70FB78002B0DD014
S315100055907B681B6823F000427B681A6000BF7B683B
S315100055A01B6803F48013002BF9D10CE07B681B6891
S315100055B043F000427B681A6000BF7B681B6803F4E7
S315100055C08013002BF9D000BF0C37BD465DF8047B65
S315100055D0704780B584B000AF78600B46FB707B686F
S315100055E0FB6000237B81FB78032B22D0032B28DC66
S315100055F0002B05D0002B24DB013B012B21D80DE01D
S31510005600FB68002283F8C020F86800F071F9FB6887
S315100056101B6801211846FFF7B2FF13E0FB68012251
S3151000562083F8C020FB681B6800211846FFF7A7FF08
S3151000563008E0F86800F05CF9FB68012283F8C020E6
S3151000564000E000BFB7F90A3018461037BD4680BDD6
S3151000565080B584B000AF786039607B68BB604FF668
S315100056601643FB81BB68D3F8A83039681846FFF794
S3151000567034FE0346002B01D00023FB81B7F90E3010
S3151000568018461037BD4680BD80B584B000AF78602F
